{
  "_format": "hh3-artifact-1",
  "contractName": "AgentRegistry",
  "sourceName": "contracts/AgentRegistry.sol",
  "abi": [
    {
      "inputs": [],
      "stateMutability": "nonpayable",
      "type": "constructor"
    },
    {
      "anonymous": false,
      "inputs": [
        {
          "indexed": true,
          "internalType": "uint256",
          "name": "agentId",
          "type": "uint256"
        },
        {
          "indexed": true,
          "internalType": "address",
          "name": "agentOwner",
          "type": "address"
        },
        {
          "indexed": false,
          "internalType": "uint256",
          "name": "deactivatedAt",
          "type": "uint256"
        }
      ],
      "name": "AgentDeactivated",
      "type": "event"
    },
    {
      "anonymous": false,
      "inputs": [
        {
          "indexed": true,
          "internalType": "uint256",
          "name": "agentId",
          "type": "uint256"
        },
        {
          "indexed": true,
          "internalType": "address",
          "name": "agentOwner",
          "type": "address"
        },
        {
          "indexed": false,
          "internalType": "uint256",
          "name": "reactivatedAt",
          "type": "uint256"
        }
      ],
      "name": "AgentReactivated",
      "type": "event"
    },
    {
      "anonymous": false,
      "inputs": [
        {
          "indexed": true,
          "internalType": "uint256",
          "name": "agentId",
          "type": "uint256"
        },
        {
          "indexed": true,
          "internalType": "address",
          "name": "agentOwner",
          "type": "address"
        },
        {
          "indexed": true,
          "internalType": "address",
          "name": "walletAddress",
          "type": "address"
        },
        {
          "indexed": false,
          "internalType": "string",
          "name": "serviceUrl",
          "type": "string"
        },
        {
          "indexed": false,
          "internalType": "uint256",
          "name": "pricePerCall",
          "type": "uint256"
        },
        {
          "indexed": false,
          "internalType": "uint256",
          "name": "registeredAt",
          "type": "uint256"
        }
      ],
      "name": "AgentRegistered",
      "type": "event"
    },
    {
      "anonymous": false,
      "inputs": [
        {
          "indexed": true,
          "internalType": "uint256",
          "name": "agentId",
          "type": "uint256"
        },
        {
          "indexed": false,
          "internalType": "string",
          "name": "serviceUrl",
          "type": "string"
        },
        {
          "indexed": false,
          "internalType": "uint256",
          "name": "pricePerCall",
          "type": "uint256"
        },
        {
          "indexed": false,
          "internalType": "uint256",
          "name": "updatedAt",
          "type": "uint256"
        }
      ],
      "name": "AgentUpdated",
      "type": "event"
    },
    {
      "anonymous": false,
      "inputs": [
        {
          "indexed": true,
          "internalType": "uint256",
          "name": "agentId",
          "type": "uint256"
        },
        {
          "indexed": false,
          "internalType": "uint256",
          "name": "totalCalls",
          "type": "uint256"
        }
      ],
      "name": "CallRecorded",
      "type": "event"
    },
    {
      "inputs": [],
      "name": "MAX_DESCRIPTION_LENGTH",
      "outputs": [
        {
          "internalType": "uint256",
          "name": "",
          "type": "uint256"
        }
      ],
      "stateMutability": "view",
      "type": "function"
    },
    {
      "inputs": [],
      "name": "MAX_NAME_LENGTH",
      "outputs": [
        {
          "internalType": "uint256",
          "name": "",
          "type": "uint256"
        }
      ],
      "stateMutability": "view",
      "type": "function"
    },
    {
      "inputs": [],
      "name": "MAX_TAGS",
      "outputs": [
        {
          "internalType": "uint256",
          "name": "",
          "type": "uint256"
        }
      ],
      "stateMutability": "view",
      "type": "function"
    },
    {
      "inputs": [],
      "name": "MAX_URL_LENGTH",
      "outputs": [
        {
          "internalType": "uint256",
          "name": "",
          "type": "uint256"
        }
      ],
      "stateMutability": "view",
      "type": "function"
    },
    {
      "inputs": [
        {
          "internalType": "uint256",
          "name": "",
          "type": "uint256"
        }
      ],
      "name": "agents",
      "outputs": [
        {
          "internalType": "uint256",
          "name": "id",
          "type": "uint256"
        },
        {
          "internalType": "string",
          "name": "name",
          "type": "string"
        },
        {
          "internalType": "string",
          "name": "description",
          "type": "string"
        },
        {
          "internalType": "string",
          "name": "serviceUrl",
          "type": "string"
        },
        {
          "internalType": "uint256",
          "name": "pricePerCall",
          "type": "uint256"
        },
        {
          "internalType": "address payable",
          "name": "walletAddress",
          "type": "address"
        },
        {
          "internalType": "address",
          "name": "agentOwner",
          "type": "address"
        },
        {
          "internalType": "bool",
          "name": "isActive",
          "type": "bool"
        },
        {
          "internalType": "uint256",
          "name": "registeredAt",
          "type": "uint256"
        },
        {
          "internalType": "uint256",
          "name": "updatedAt",
          "type": "uint256"
        },
        {
          "internalType": "uint256",
          "name": "totalCalls",
          "type": "uint256"
        }
      ],
      "stateMutability": "view",
      "type": "function"
    },
    {
      "inputs": [
        {
          "internalType": "address",
          "name": "",
          "type": "address"
        },
        {
          "internalType": "uint256",
          "name": "",
          "type": "uint256"
        }
      ],
      "name": "agentsByOwner",
      "outputs": [
        {
          "internalType": "uint256",
          "name": "",
          "type": "uint256"
        }
      ],
      "stateMutability": "view",
      "type": "function"
    },
    {
      "inputs": [
        {
          "internalType": "string",
          "name": "",
          "type": "string"
        },
        {
          "internalType": "uint256",
          "name": "",
          "type": "uint256"
        }
      ],
      "name": "agentsByTag",
      "outputs": [
        {
          "internalType": "uint256",
          "name": "",
          "type": "uint256"
        }
      ],
      "stateMutability": "view",
      "type": "function"
    },
    {
      "inputs": [
        {
          "internalType": "uint256",
          "name": "agentId",
          "type": "uint256"
        }
      ],
      "name": "deactivateAgent",
      "outputs": [],
      "stateMutability": "nonpayable",
      "type": "function"
    },
    {
      "inputs": [
        {
          "internalType": "uint256",
          "name": "agentId",
          "type": "uint256"
        }
      ],
      "name": "getAgent",
      "outputs": [
        {
          "components": [
            {
              "internalType": "uint256",
              "name": "id",
              "type": "uint256"
            },
            {
              "internalType": "string",
              "name": "name",
              "type": "string"
            },
            {
              "internalType": "string",
              "name": "description",
              "type": "string"
            },
            {
              "internalType": "string",
              "name": "serviceUrl",
              "type": "string"
            },
            {
              "internalType": "uint256",
              "name": "pricePerCall",
              "type": "uint256"
            },
            {
              "internalType": "address payable",
              "name": "walletAddress",
              "type": "address"
            },
            {
              "internalType": "string[]",
              "name": "tags",
              "type": "string[]"
            },
            {
              "internalType": "address",
              "name": "agentOwner",
              "type": "address"
            },
            {
              "internalType": "bool",
              "name": "isActive",
              "type": "bool"
            },
            {
              "internalType": "uint256",
              "name": "registeredAt",
              "type": "uint256"
            },
            {
              "internalType": "uint256",
              "name": "updatedAt",
              "type": "uint256"
            },
            {
              "internalType": "uint256",
              "name": "totalCalls",
              "type": "uint256"
            }
          ],
          "internalType": "struct AgentRegistry.Agent",
          "name": "",
          "type": "tuple"
        }
      ],
      "stateMutability": "view",
      "type": "function"
    },
    {
      "inputs": [
        {
          "internalType": "address",
          "name": "agentOwner",
          "type": "address"
        }
      ],
      "name": "getAgentsByOwner",
      "outputs": [
        {
          "internalType": "uint256[]",
          "name": "",
          "type": "uint256[]"
        }
      ],
      "stateMutability": "view",
      "type": "function"
    },
    {
      "inputs": [
        {
          "internalType": "string",
          "name": "tag",
          "type": "string"
        }
      ],
      "name": "getAgentsByTag",
      "outputs": [
        {
          "internalType": "uint256[]",
          "name": "",
          "type": "uint256[]"
        }
      ],
      "stateMutability": "view",
      "type": "function"
    },
    {
      "inputs": [],
      "name": "nextAgentId",
      "outputs": [
        {
          "internalType": "uint256",
          "name": "",
          "type": "uint256"
        }
      ],
      "stateMutability": "view",
      "type": "function"
    },
    {
      "inputs": [],
      "name": "owner",
      "outputs": [
        {
          "internalType": "address",
          "name": "",
          "type": "address"
        }
      ],
      "stateMutability": "view",
      "type": "function"
    },
    {
      "inputs": [],
      "name": "pause",
      "outputs": [],
      "stateMutability": "nonpayable",
      "type": "function"
    },
    {
      "inputs": [],
      "name": "paused",
      "outputs": [
        {
          "internalType": "bool",
          "name": "",
          "type": "bool"
        }
      ],
      "stateMutability": "view",
      "type": "function"
    },
    {
      "inputs": [
        {
          "internalType": "uint256",
          "name": "agentId",
          "type": "uint256"
        }
      ],
      "name": "reactivateAgent",
      "outputs": [],
      "stateMutability": "nonpayable",
      "type": "function"
    },
    {
      "inputs": [
        {
          "internalType": "uint256",
          "name": "agentId",
          "type": "uint256"
        }
      ],
      "name": "recordCall",
      "outputs": [],
      "stateMutability": "nonpayable",
      "type": "function"
    },
    {
      "inputs": [
        {
          "internalType": "string",
          "name": "name",
          "type": "string"
        },
        {
          "internalType": "string",
          "name": "description",
          "type": "string"
        },
        {
          "internalType": "string",
          "name": "serviceUrl",
          "type": "string"
        },
        {
          "internalType": "uint256",
          "name": "pricePerCall",
          "type": "uint256"
        },
        {
          "internalType": "address payable",
          "name": "walletAddress",
          "type": "address"
        },
        {
          "internalType": "string[]",
          "name": "tags",
          "type": "string[]"
        }
      ],
      "name": "registerAgent",
      "outputs": [
        {
          "internalType": "uint256",
          "name": "agentId",
          "type": "uint256"
        }
      ],
      "stateMutability": "nonpayable",
      "type": "function"
    },
    {
      "inputs": [],
      "name": "totalAgents",
      "outputs": [
        {
          "internalType": "uint256",
          "name": "",
          "type": "uint256"
        }
      ],
      "stateMutability": "view",
      "type": "function"
    },
    {
      "inputs": [],
      "name": "unpause",
      "outputs": [],
      "stateMutability": "nonpayable",
      "type": "function"
    },
    {
      "inputs": [
        {
          "internalType": "uint256",
          "name": "agentId",
          "type": "uint256"
        },
        {
          "internalType": "string",
          "name": "serviceUrl",
          "type": "string"
        },
        {
          "internalType": "uint256",
          "name": "pricePerCall",
          "type": "uint256"
        },
        {
          "internalType": "string",
          "name": "description",
          "type": "string"
        }
      ],
      "name": "updateAgent",
      "outputs": [],
      "stateMutability": "nonpayable",
      "type": "function"
    }
  ],
  "bytecode": "0x60a060405234801561000f575f80fd5b503360805260015f5560805161203d6100455f395f818161026d015281816108d4015281816109bf01526113e1015261203d5ff3fe608060405234801561000f575f80fd5b5060043610610132575f3560e01c806361640889116100b45780639201ea0a116100795780639201ea0a146102a7578063c5053712146102b0578063cb71146e146102b8578063cce67226146102c1578063fc62889f146102c9578063fd610317146102dc575f80fd5b80636164088914610232578063768eb96f146102455780638456cb591461025857806386074985146102605780638da5cb5b14610268575f80fd5b806330efc498116100fa57806330efc498146101ba5780633f4ba83a146101d0578063490ade07146101d8578063513856c8146101eb5780635c975abb14610215575f80fd5b80631072af9d1461013657806311ba6b4a1461015f5780631ab6f888146101745780632de5aaf7146101875780632de8d5be146101a7575b5f80fd5b6101496101443660046116b5565b6102ef565b60405161015691906116f4565b60405180910390f35b61017261016d366004611737565b610361565b005b610149610182366004611762565b610495565b61019a610195366004611737565b6104fe565b604051610156919061181a565b6101726101b5366004611737565b6108c9565b6101c25f5481565b604051908152602001610156565b6101726109b4565b6101c26101e6366004611970565b610a08565b6101fe6101f9366004611737565b610ff0565b6040516101569b9a99989796959493929190611a4a565b6001546102229060ff1681565b6040519015158152602001610156565b610172610240366004611acf565b6111ea565b6101c2610253366004611b4c565b6113ab565b6101726113d6565b6101c2605081565b61028f7f000000000000000000000000000000000000000000000000000000000000000081565b6040516001600160a01b039091168152602001610156565b6101c26103e881565b6101c261142c565b6101c261020081565b6101c2600a81565b6101c26102d7366004611b8a565b611440565b6101726102ea366004611737565b61146a565b606060048383604051610303929190611c39565b908152604080519182900360209081018320805480830285018301909352828452919083018282801561035357602002820191905f5260205f20905b81548152602001906001019080831161033f575b505050505090505b92915050565b805f8111801561037157505f5481105b6103965760405162461bcd60e51b815260040161038d90611c48565b60405180910390fd5b5f8281526002602052604090206007015482906001600160a01b031633146103d05760405162461bcd60e51b815260040161038d90611c8b565b5f83815260026020526040902060070154600160a01b900460ff166104375760405162461bcd60e51b815260206004820152601f60248201527f4167656e7452656769737472793a20616c726561647920696e61637469766500604482015260640161038d565b5f8381526002602052604090819020600701805460ff60a01b1916905551339084907f629ba2cba0fdd2c64ed7563ab32bd4421eccb677d4d27ef87ae65ff235a003f3906104889042815260200190565b60405180910390a3505050565b6001600160a01b0381165f908152600360209081526040918290208054835181840281018401909452808452606093928301828280156104f257602002820191905f5260205f20905b8154815260200190600101908083116104de575b50505050509050919050565b61056e6040518061018001604052805f81526020016060815260200160608152602001606081526020015f81526020015f6001600160a01b03168152602001606081526020015f6001600160a01b031681526020015f151581526020015f81526020015f81526020015f81525090565b815f8111801561057e57505f5481105b61059a5760405162461bcd60e51b815260040161038d90611c48565b60025f8481526020019081526020015f20604051806101800160405290815f82015481526020016001820180546105d090611cc2565b80601f01602080910402602001604051908101604052809291908181526020018280546105fc90611cc2565b80156106475780601f1061061e57610100808354040283529160200191610647565b820191905f5260205f20905b81548152906001019060200180831161062a57829003601f168201915b5050505050815260200160028201805461066090611cc2565b80601f016020809104026020016040519081016040528092919081815260200182805461068c90611cc2565b80156106d75780601f106106ae576101008083540402835291602001916106d7565b820191905f5260205f20905b8154815290600101906020018083116106ba57829003601f168201915b505050505081526020016003820180546106f090611cc2565b80601f016020809104026020016040519081016040528092919081815260200182805461071c90611cc2565b80156107675780601f1061073e57610100808354040283529160200191610767565b820191905f5260205f20905b81548152906001019060200180831161074a57829003601f168201915b5050505050815260200160048201548152602001600582015f9054906101000a90046001600160a01b03166001600160a01b03166001600160a01b0316815260200160068201805480602002602001604051908101604052809291908181526020015f905b82821015610874578382905f5260205f200180546107e990611cc2565b80601f016020809104026020016040519081016040528092919081815260200182805461081590611cc2565b80156108605780601f1061083757610100808354040283529160200191610860565b820191905f5260205f20905b81548152906001019060200180831161084357829003601f168201915b5050505050815260200190600101906107cc565b5050509082525060078201546001600160a01b0381166020830152600160a01b900460ff16151560408201526008820154606082015260098201546080820152600a9091015460a09091015291505b50919050565b336001600160a01b037f000000000000000000000000000000000000000000000000000000000000000016146109115760405162461bcd60e51b815260040161038d90611cf4565b805f8111801561092157505f5481105b61093d5760405162461bcd60e51b815260040161038d90611c48565b5f828152600260205260408120600a0180546001929061095e908490611d3f565b90915550505f8281526002602052604090819020600a0154905183917f65c1347caabe88795675c87912a785cd153574c3bb3f7c7dc0982f20c93a77c3916109a891815260200190565b60405180910390a25050565b336001600160a01b037f000000000000000000000000000000000000000000000000000000000000000016146109fc5760405162461bcd60e51b815260040161038d90611cf4565b6001805460ff19169055565b6001545f9060ff1615610a2d5760405162461bcd60e51b815260040161038d90611d52565b8915801590610a3d575060508a11155b610a895760405162461bcd60e51b815260206004820152601b60248201527f4167656e7452656769737472793a20696e76616c6964206e616d650000000000604482015260640161038d565b8515801590610a9a57506102008611155b610ae65760405162461bcd60e51b815260206004820152601a60248201527f4167656e7452656769737472793a20696e76616c69642075726c000000000000604482015260640161038d565b6103e8881115610b445760405162461bcd60e51b815260206004820152602360248201527f4167656e7452656769737472793a206465736372697074696f6e20746f6f206c6044820152626f6e6760e81b606482015260840161038d565b5f8511610b935760405162461bcd60e51b815260206004820181905260248201527f4167656e7452656769737472793a207072696365206d757374206265203e2030604482015260640161038d565b6001600160a01b038416610be95760405162461bcd60e51b815260206004820152601d60248201527f4167656e7452656769737472793a20696e76616c69642077616c6c6574000000604482015260640161038d565b600a821115610c3a5760405162461bcd60e51b815260206004820152601c60248201527f4167656e7452656769737472793a20746f6f206d616e79207461677300000000604482015260640161038d565b5f80549080610c4883611d81565b9091555090505f8267ffffffffffffffff811115610c6857610c68611b76565b604051908082528060200260200182016040528015610c9b57816020015b6060815260200190600190039081610c865790505b5090505f5b83811015610d8757848482818110610cba57610cba611d99565b9050602002810190610ccc9190611dad565b8080601f0160208091040260200160405190810160405280939291908181526020018383808284375f920191909152505084518592508491508110610d1357610d13611d99565b60200260200101819052506004858583818110610d3257610d32611d99565b9050602002810190610d449190611dad565b604051610d52929190611c39565b9081526040516020918190038201902080546001810182555f9182529190200183905580610d7f81611d81565b915050610ca0565b506040518061018001604052808381526020018d8d8080601f0160208091040260200160405190810160405280939291908181526020018383808284375f92019190915250505090825250604080516020601f8e018190048102820181019092528c815291810191908d908d90819084018382808284375f92019190915250505090825250604080516020601f8c018190048102820181019092528a815291810191908b908b90819084018382808284375f92018290525093855250505060208083018a90526001600160a01b03891660408085019190915260608401869052336080850152600160a085018190524260c0860181905260e08601526101009094018390528683526002825290912083518155908301519091820190610ead9082611e3e565b5060408201516002820190610ec29082611e3e565b5060608201516003820190610ed79082611e3e565b506080820151600482015560a08201516005820180546001600160a01b0319166001600160a01b0390921691909117905560c08201518051610f239160068401916020909101906115b2565b5060e08201516007820180546101008501511515600160a01b026001600160a81b03199091166001600160a01b03938416171790556101208301516008830155610140830151600983015561016090920151600a90910155335f81815260036020908152604080832080546001810182559084529190922001859055519187169184907f42a20d49f1b2e8a0b7114e2f831a8bd723185045b8a6987dfd2a5d19b800256a90610fd9908d908d908d904290611efa565b60405180910390a4509a9950505050505050505050565b60026020525f90815260409020805460018201805491929161101190611cc2565b80601f016020809104026020016040519081016040528092919081815260200182805461103d90611cc2565b80156110885780601f1061105f57610100808354040283529160200191611088565b820191905f5260205f20905b81548152906001019060200180831161106b57829003601f168201915b50505050509080600201805461109d90611cc2565b80601f01602080910402602001604051908101604052809291908181526020018280546110c990611cc2565b80156111145780601f106110eb57610100808354040283529160200191611114565b820191905f5260205f20905b8154815290600101906020018083116110f757829003601f168201915b50505050509080600301805461112990611cc2565b80601f016020809104026020016040519081016040528092919081815260200182805461115590611cc2565b80156111a05780601f10611177576101008083540402835291602001916111a0565b820191905f5260205f20905b81548152906001019060200180831161118357829003601f168201915b5050505060048301546005840154600785015460088601546009870154600a90970154959693956001600160a01b03938416955092821693600160a01b90920460ff16929091908b565b855f811180156111fa57505f5481105b6112165760405162461bcd60e51b815260040161038d90611c48565b5f8781526002602052604090206007015487906001600160a01b031633146112505760405162461bcd60e51b815260040161038d90611c8b565b60015460ff16156112735760405162461bcd60e51b815260040161038d90611d52565b851580159061128457506102008611155b6112d05760405162461bcd60e51b815260206004820152601a60248201527f4167656e7452656769737472793a20696e76616c69642075726c000000000000604482015260640161038d565b5f851161131f5760405162461bcd60e51b815260206004820181905260248201527f4167656e7452656769737472793a207072696365206d757374206265203e2030604482015260640161038d565b5f8881526002602052604090206003810161133b888a83611f38565b5060048101869055831561135a5760028101611358858783611f38565b505b42600982018190556040518a917f194664b89b5112604aea7f6744bbcee2c1829a62c50149a72898cc50d7dd51ec91611398918c918c918c91611efa565b60405180910390a2505050505050505050565b6003602052815f5260405f2081815481106113c4575f80fd5b905f5260205f20015f91509150505481565b336001600160a01b037f0000000000000000000000000000000000000000000000000000000000000000161461141e5760405162461bcd60e51b815260040161038d90611cf4565b6001805460ff191681179055565b5f60015f5461143b9190611ff4565b905090565b815160208184018101805160048252928201918501919091209190528054829081106113c4575f80fd5b805f8111801561147a57505f5481105b6114965760405162461bcd60e51b815260040161038d90611c48565b5f8281526002602052604090206007015482906001600160a01b031633146114d05760405162461bcd60e51b815260040161038d90611c8b565b60015460ff16156114f35760405162461bcd60e51b815260040161038d90611d52565b5f83815260026020526040902060070154600160a01b900460ff161561155b5760405162461bcd60e51b815260206004820152601d60248201527f4167656e7452656769737472793a20616c726561647920616374697665000000604482015260640161038d565b5f8381526002602052604090819020600701805460ff60a01b1916600160a01b17905551339084907f127e7b2a6798f68be613ca1b47e0c669465d58e5a5a6209ff41e07130273ecdc906104889042815260200190565b828054828255905f5260205f209081019282156115f6579160200282015b828111156115f657825182906115e69082611e3e565b50916020019190600101906115d0565b50611602929150611606565b5090565b80821115611602575f6116198282611622565b50600101611606565b50805461162e90611cc2565b5f825580601f1061163d575050565b601f0160209004905f5260205f2090810190611659919061165c565b50565b5b80821115611602575f815560010161165d565b5f8083601f840112611680575f80fd5b50813567ffffffffffffffff811115611697575f80fd5b6020830191508360208285010111156116ae575f80fd5b9250929050565b5f80602083850312156116c6575f80fd5b823567ffffffffffffffff8111156116dc575f80fd5b6116e885828601611670565b90969095509350505050565b602080825282518282018190525f9190848201906040850190845b8181101561172b5783518352928401929184019160010161170f565b50909695505050505050565b5f60208284031215611747575f80fd5b5035919050565b6001600160a01b0381168114611659575f80fd5b5f60208284031215611772575f80fd5b813561177d8161174e565b9392505050565b5f81518084525f5b818110156117a85760208185018101518683018201520161178c565b505f602082860101526020601f19601f83011685010191505092915050565b5f81518084526020808501808196508360051b810191508286015f5b8581101561180d5782840389526117fb848351611784565b988501989350908401906001016117e3565b5091979650505050505050565b60208152815160208201525f60208301516101808060408501526118426101a0850183611784565b91506040850151601f19808685030160608701526118608483611784565b9350606087015191508086850301608087015261187d8483611784565b9350608087015160a087015260a087015191506118a560c08701836001600160a01b03169052565b60c08701519150808685030160e0870152506118c183826117c7565b92505060e08501516101006118e0818701836001600160a01b03169052565b86015190506101206118f58682018315159052565b86015161014086810191909152860151610160808701919091529095015193019290925250919050565b803561192a8161174e565b919050565b5f8083601f84011261193f575f80fd5b50813567ffffffffffffffff811115611956575f80fd5b6020830191508360208260051b85010111156116ae575f80fd5b5f805f805f805f805f8060c08b8d031215611989575f80fd5b8a3567ffffffffffffffff808211156119a0575f80fd5b6119ac8e838f01611670565b909c509a5060208d01359150808211156119c4575f80fd5b6119d08e838f01611670565b909a50985060408d01359150808211156119e8575f80fd5b6119f48e838f01611670565b909850965060608d01359550869150611a0f60808e0161191f565b945060a08d0135915080821115611a24575f80fd5b50611a318d828e0161192f565b915080935050809150509295989b9194979a5092959850565b5f6101608d8352806020840152611a638184018e611784565b90508281036040840152611a77818d611784565b90508281036060840152611a8b818c611784565b608084019a909a5250506001600160a01b0396871660a08201529490951660c085015291151560e08401526101008301526101208201526101400152949350505050565b5f805f805f8060808789031215611ae4575f80fd5b86359550602087013567ffffffffffffffff80821115611b02575f80fd5b611b0e8a838b01611670565b9097509550604089013594506060890135915080821115611b2d575f80fd5b50611b3a89828a01611670565b979a9699509497509295939492505050565b5f8060408385031215611b5d575f80fd5b8235611b688161174e565b946020939093013593505050565b634e487b7160e01b5f52604160045260245ffd5b5f8060408385031215611b9b575f80fd5b823567ffffffffffffffff80821115611bb2575f80fd5b818501915085601f830112611bc5575f80fd5b813581811115611bd757611bd7611b76565b604051601f8201601f19908116603f01168101908382118183101715611bff57611bff611b76565b81604052828152886020848701011115611c17575f80fd5b826020860160208301375f602093820184015298969091013596505050505050565b818382375f9101908152919050565b60208082526023908201527f4167656e7452656769737472793a206167656e7420646f6573206e6f742065786040820152621a5cdd60ea1b606082015260800190565b6020808252601e908201527f4167656e7452656769737472793a206e6f74206167656e74206f776e65720000604082015260600190565b600181811c90821680611cd657607f821691505b6020821081036108c357634e487b7160e01b5f52602260045260245ffd5b60208082526018908201527f4167656e7452656769737472793a206e6f74206f776e65720000000000000000604082015260600190565b634e487b7160e01b5f52601160045260245ffd5b8082018082111561035b5761035b611d2b565b6020808252601590820152741059d95b9d149959da5cdd1c9e4e881c185d5cd959605a1b604082015260600190565b5f60018201611d9257611d92611d2b565b5060010190565b634e487b7160e01b5f52603260045260245ffd5b5f808335601e19843603018112611dc2575f80fd5b83018035915067ffffffffffffffff821115611ddc575f80fd5b6020019150368190038213156116ae575f80fd5b601f821115611e39575f81815260208120601f850160051c81016020861015611e165750805b601f850160051c820191505b81811015611e3557828155600101611e22565b5050505b505050565b815167ffffffffffffffff811115611e5857611e58611b76565b611e6c81611e668454611cc2565b84611df0565b602080601f831160018114611e9f575f8415611e885750858301515b5f19600386901b1c1916600185901b178555611e35565b5f85815260208120601f198616915b82811015611ecd57888601518255948401946001909101908401611eae565b5085821015611eea57878501515f19600388901b60f8161c191681555b5050505050600190811b01905550565b60608152836060820152838560808301375f608085830101525f6080601f19601f870116830101905083602083015282604083015295945050505050565b67ffffffffffffffff831115611f5057611f50611b76565b611f6483611f5e8354611cc2565b83611df0565b5f601f841160018114611f95575f8515611f7e5750838201355b5f19600387901b1c1916600186901b178355611fed565b5f83815260209020601f19861690835b82811015611fc55786850135825560209485019460019092019101611fa5565b5086821015611fe1575f1960f88860031b161c19848701351681555b505060018560011b0183555b5050505050565b8181038181111561035b5761035b611d2b56fea2646970667358221220454b285976781d038890193e7b82ff8931ac7b785ad30aaff34e697e7400cb5c64736f6c63430008140033",
  "linkReferences": {},
  "deployedLinkReferences": {},
  "immutableReferences": {
    "4": [
      {
        "length": 32,
        "start": 621
      },
      {
        "length": 32,
        "start": 2260
      },
      {
        "length": 32,
        "start": 2495
      },
      {
        "length": 32,
        "start": 5089
      }
    ]
  },
  "inputSourceName": "project/contracts/AgentRegistry.sol",
  "buildInfoId": "solc-0_8_20-5a838422cf6d7b04787d6f74e131d15b1ea75ab2"
}