{
  "_format": "hh3-artifact-1",
  "contractName": "AgentRegistry",
  "sourceName": "contracts/AgentRegistry.sol",
  "abi": [
    {
      "inputs": [
        {
          "internalType": "address",
          "name": "_usdc",
          "type": "address"
        }
      ],
      "stateMutability": "nonpayable",
      "type": "constructor"
    },
    {
      "anonymous": false,
      "inputs": [
        {
          "indexed": true,
          "internalType": "uint256",
          "name": "agentId",
          "type": "uint256"
        },
        {
          "indexed": true,
          "internalType": "address",
          "name": "agentOwner",
          "type": "address"
        },
        {
          "indexed": false,
          "internalType": "uint256",
          "name": "deactivatedAt",
          "type": "uint256"
        }
      ],
      "name": "AgentDeactivated",
      "type": "event"
    },
    {
      "anonymous": false,
      "inputs": [
        {
          "indexed": true,
          "internalType": "uint256",
          "name": "agentId",
          "type": "uint256"
        },
        {
          "indexed": true,
          "internalType": "address",
          "name": "agentOwner",
          "type": "address"
        },
        {
          "indexed": false,
          "internalType": "uint256",
          "name": "reactivatedAt",
          "type": "uint256"
        }
      ],
      "name": "AgentReactivated",
      "type": "event"
    },
    {
      "anonymous": false,
      "inputs": [
        {
          "indexed": true,
          "internalType": "uint256",
          "name": "agentId",
          "type": "uint256"
        },
        {
          "indexed": true,
          "internalType": "address",
          "name": "agentOwner",
          "type": "address"
        },
        {
          "indexed": true,
          "internalType": "address",
          "name": "walletAddress",
          "type": "address"
        },
        {
          "indexed": false,
          "internalType": "string",
          "name": "serviceUrl",
          "type": "string"
        },
        {
          "indexed": false,
          "internalType": "uint256",
          "name": "pricePerCall",
          "type": "uint256"
        },
        {
          "indexed": false,
          "internalType": "uint256",
          "name": "registeredAt",
          "type": "uint256"
        }
      ],
      "name": "AgentRegistered",
      "type": "event"
    },
    {
      "anonymous": false,
      "inputs": [
        {
          "indexed": true,
          "internalType": "uint256",
          "name": "agentId",
          "type": "uint256"
        },
        {
          "indexed": false,
          "internalType": "string",
          "name": "serviceUrl",
          "type": "string"
        },
        {
          "indexed": false,
          "internalType": "uint256",
          "name": "pricePerCall",
          "type": "uint256"
        },
        {
          "indexed": false,
          "internalType": "uint256",
          "name": "updatedAt",
          "type": "uint256"
        }
      ],
      "name": "AgentUpdated",
      "type": "event"
    },
    {
      "anonymous": false,
      "inputs": [
        {
          "indexed": true,
          "internalType": "uint256",
          "name": "agentId",
          "type": "uint256"
        },
        {
          "indexed": false,
          "internalType": "uint256",
          "name": "totalCalls",
          "type": "uint256"
        },
        {
          "indexed": false,
          "internalType": "uint256",
          "name": "successCount",
          "type": "uint256"
        }
      ],
      "name": "CallRecorded",
      "type": "event"
    },
    {
      "anonymous": false,
      "inputs": [
        {
          "indexed": true,
          "internalType": "uint256",
          "name": "agentId",
          "type": "uint256"
        },
        {
          "indexed": true,
          "internalType": "address",
          "name": "owner",
          "type": "address"
        },
        {
          "indexed": false,
          "internalType": "uint256",
          "name": "amount",
          "type": "uint256"
        }
      ],
      "name": "StakeWithdrawn",
      "type": "event"
    },
    {
      "anonymous": false,
      "inputs": [
        {
          "indexed": true,
          "internalType": "uint256",
          "name": "agentId",
          "type": "uint256"
        },
        {
          "indexed": true,
          "internalType": "address",
          "name": "staker",
          "type": "address"
        },
        {
          "indexed": false,
          "internalType": "uint256",
          "name": "amount",
          "type": "uint256"
        }
      ],
      "name": "Staked",
      "type": "event"
    },
    {
      "anonymous": false,
      "inputs": [
        {
          "indexed": true,
          "internalType": "uint256",
          "name": "agentId",
          "type": "uint256"
        },
        {
          "indexed": false,
          "internalType": "uint256",
          "name": "uniquePayers",
          "type": "uint256"
        }
      ],
      "name": "UniquePrayersUpdated",
      "type": "event"
    },
    {
      "inputs": [],
      "name": "MAX_DESCRIPTION_LENGTH",
      "outputs": [
        {
          "internalType": "uint256",
          "name": "",
          "type": "uint256"
        }
      ],
      "stateMutability": "view",
      "type": "function"
    },
    {
      "inputs": [],
      "name": "MAX_NAME_LENGTH",
      "outputs": [
        {
          "internalType": "uint256",
          "name": "",
          "type": "uint256"
        }
      ],
      "stateMutability": "view",
      "type": "function"
    },
    {
      "inputs": [],
      "name": "MAX_TAGS",
      "outputs": [
        {
          "internalType": "uint256",
          "name": "",
          "type": "uint256"
        }
      ],
      "stateMutability": "view",
      "type": "function"
    },
    {
      "inputs": [],
      "name": "MAX_URL_LENGTH",
      "outputs": [
        {
          "internalType": "uint256",
          "name": "",
          "type": "uint256"
        }
      ],
      "stateMutability": "view",
      "type": "function"
    },
    {
      "inputs": [
        {
          "internalType": "uint256",
          "name": "",
          "type": "uint256"
        }
      ],
      "name": "agents",
      "outputs": [
        {
          "internalType": "uint256",
          "name": "id",
          "type": "uint256"
        },
        {
          "internalType": "string",
          "name": "name",
          "type": "string"
        },
        {
          "internalType": "string",
          "name": "description",
          "type": "string"
        },
        {
          "internalType": "string",
          "name": "serviceUrl",
          "type": "string"
        },
        {
          "internalType": "uint256",
          "name": "pricePerCall",
          "type": "uint256"
        },
        {
          "internalType": "address payable",
          "name": "walletAddress",
          "type": "address"
        },
        {
          "internalType": "address",
          "name": "agentOwner",
          "type": "address"
        },
        {
          "internalType": "bool",
          "name": "isActive",
          "type": "bool"
        },
        {
          "internalType": "uint256",
          "name": "registeredAt",
          "type": "uint256"
        },
        {
          "internalType": "uint256",
          "name": "updatedAt",
          "type": "uint256"
        },
        {
          "internalType": "uint256",
          "name": "totalCalls",
          "type": "uint256"
        },
        {
          "internalType": "uint256",
          "name": "successCount",
          "type": "uint256"
        },
        {
          "internalType": "uint256",
          "name": "uniquePayers",
          "type": "uint256"
        },
        {
          "internalType": "uint256",
          "name": "stakeAmount",
          "type": "uint256"
        }
      ],
      "stateMutability": "view",
      "type": "function"
    },
    {
      "inputs": [
        {
          "internalType": "address",
          "name": "",
          "type": "address"
        },
        {
          "internalType": "uint256",
          "name": "",
          "type": "uint256"
        }
      ],
      "name": "agentsByOwner",
      "outputs": [
        {
          "internalType": "uint256",
          "name": "",
          "type": "uint256"
        }
      ],
      "stateMutability": "view",
      "type": "function"
    },
    {
      "inputs": [
        {
          "internalType": "string",
          "name": "",
          "type": "string"
        },
        {
          "internalType": "uint256",
          "name": "",
          "type": "uint256"
        }
      ],
      "name": "agentsByTag",
      "outputs": [
        {
          "internalType": "uint256",
          "name": "",
          "type": "uint256"
        }
      ],
      "stateMutability": "view",
      "type": "function"
    },
    {
      "inputs": [
        {
          "internalType": "uint256",
          "name": "agentId",
          "type": "uint256"
        }
      ],
      "name": "deactivateAgent",
      "outputs": [],
      "stateMutability": "nonpayable",
      "type": "function"
    },
    {
      "inputs": [
        {
          "internalType": "uint256",
          "name": "agentId",
          "type": "uint256"
        }
      ],
      "name": "getAgent",
      "outputs": [
        {
          "components": [
            {
              "internalType": "uint256",
              "name": "id",
              "type": "uint256"
            },
            {
              "internalType": "string",
              "name": "name",
              "type": "string"
            },
            {
              "internalType": "string",
              "name": "description",
              "type": "string"
            },
            {
              "internalType": "string",
              "name": "serviceUrl",
              "type": "string"
            },
            {
              "internalType": "uint256",
              "name": "pricePerCall",
              "type": "uint256"
            },
            {
              "internalType": "address payable",
              "name": "walletAddress",
              "type": "address"
            },
            {
              "internalType": "string[]",
              "name": "tags",
              "type": "string[]"
            },
            {
              "internalType": "address",
              "name": "agentOwner",
              "type": "address"
            },
            {
              "internalType": "bool",
              "name": "isActive",
              "type": "bool"
            },
            {
              "internalType": "uint256",
              "name": "registeredAt",
              "type": "uint256"
            },
            {
              "internalType": "uint256",
              "name": "updatedAt",
              "type": "uint256"
            },
            {
              "internalType": "uint256",
              "name": "totalCalls",
              "type": "uint256"
            },
            {
              "internalType": "uint256",
              "name": "successCount",
              "type": "uint256"
            },
            {
              "internalType": "uint256",
              "name": "uniquePayers",
              "type": "uint256"
            },
            {
              "internalType": "uint256",
              "name": "stakeAmount",
              "type": "uint256"
            }
          ],
          "internalType": "struct AgentRegistry.Agent",
          "name": "",
          "type": "tuple"
        }
      ],
      "stateMutability": "view",
      "type": "function"
    },
    {
      "inputs": [
        {
          "internalType": "address",
          "name": "agentOwner",
          "type": "address"
        }
      ],
      "name": "getAgentsByOwner",
      "outputs": [
        {
          "internalType": "uint256[]",
          "name": "",
          "type": "uint256[]"
        }
      ],
      "stateMutability": "view",
      "type": "function"
    },
    {
      "inputs": [
        {
          "internalType": "string",
          "name": "tag",
          "type": "string"
        }
      ],
      "name": "getAgentsByTag",
      "outputs": [
        {
          "internalType": "uint256[]",
          "name": "",
          "type": "uint256[]"
        }
      ],
      "stateMutability": "view",
      "type": "function"
    },
    {
      "inputs": [],
      "name": "nextAgentId",
      "outputs": [
        {
          "internalType": "uint256",
          "name": "",
          "type": "uint256"
        }
      ],
      "stateMutability": "view",
      "type": "function"
    },
    {
      "inputs": [],
      "name": "owner",
      "outputs": [
        {
          "internalType": "address",
          "name": "",
          "type": "address"
        }
      ],
      "stateMutability": "view",
      "type": "function"
    },
    {
      "inputs": [],
      "name": "pause",
      "outputs": [],
      "stateMutability": "nonpayable",
      "type": "function"
    },
    {
      "inputs": [],
      "name": "paused",
      "outputs": [
        {
          "internalType": "bool",
          "name": "",
          "type": "bool"
        }
      ],
      "stateMutability": "view",
      "type": "function"
    },
    {
      "inputs": [
        {
          "internalType": "uint256",
          "name": "agentId",
          "type": "uint256"
        }
      ],
      "name": "reactivateAgent",
      "outputs": [],
      "stateMutability": "nonpayable",
      "type": "function"
    },
    {
      "inputs": [
        {
          "internalType": "uint256",
          "name": "agentId",
          "type": "uint256"
        },
        {
          "internalType": "bool",
          "name": "success",
          "type": "bool"
        }
      ],
      "name": "recordCall",
      "outputs": [],
      "stateMutability": "nonpayable",
      "type": "function"
    },
    {
      "inputs": [
        {
          "internalType": "string",
          "name": "name",
          "type": "string"
        },
        {
          "internalType": "string",
          "name": "description",
          "type": "string"
        },
        {
          "internalType": "string",
          "name": "serviceUrl",
          "type": "string"
        },
        {
          "internalType": "uint256",
          "name": "pricePerCall",
          "type": "uint256"
        },
        {
          "internalType": "address payable",
          "name": "walletAddress",
          "type": "address"
        },
        {
          "internalType": "string[]",
          "name": "tags",
          "type": "string[]"
        }
      ],
      "name": "registerAgent",
      "outputs": [
        {
          "internalType": "uint256",
          "name": "agentId",
          "type": "uint256"
        }
      ],
      "stateMutability": "nonpayable",
      "type": "function"
    },
    {
      "inputs": [
        {
          "internalType": "uint256",
          "name": "agentId",
          "type": "uint256"
        },
        {
          "internalType": "uint256",
          "name": "count",
          "type": "uint256"
        }
      ],
      "name": "setUniquePayers",
      "outputs": [],
      "stateMutability": "nonpayable",
      "type": "function"
    },
    {
      "inputs": [
        {
          "internalType": "uint256",
          "name": "agentId",
          "type": "uint256"
        },
        {
          "internalType": "uint256",
          "name": "amount",
          "type": "uint256"
        }
      ],
      "name": "stake",
      "outputs": [],
      "stateMutability": "nonpayable",
      "type": "function"
    },
    {
      "inputs": [
        {
          "internalType": "uint256",
          "name": "agentId",
          "type": "uint256"
        }
      ],
      "name": "successRate",
      "outputs": [
        {
          "internalType": "uint256",
          "name": "",
          "type": "uint256"
        }
      ],
      "stateMutability": "view",
      "type": "function"
    },
    {
      "inputs": [],
      "name": "totalAgents",
      "outputs": [
        {
          "internalType": "uint256",
          "name": "",
          "type": "uint256"
        }
      ],
      "stateMutability": "view",
      "type": "function"
    },
    {
      "inputs": [],
      "name": "unpause",
      "outputs": [],
      "stateMutability": "nonpayable",
      "type": "function"
    },
    {
      "inputs": [
        {
          "internalType": "uint256",
          "name": "agentId",
          "type": "uint256"
        },
        {
          "internalType": "string",
          "name": "serviceUrl",
          "type": "string"
        },
        {
          "internalType": "uint256",
          "name": "pricePerCall",
          "type": "uint256"
        },
        {
          "internalType": "string",
          "name": "description",
          "type": "string"
        }
      ],
      "name": "updateAgent",
      "outputs": [],
      "stateMutability": "nonpayable",
      "type": "function"
    },
    {
      "inputs": [],
      "name": "usdc",
      "outputs": [
        {
          "internalType": "address",
          "name": "",
          "type": "address"
        }
      ],
      "stateMutability": "view",
      "type": "function"
    },
    {
      "inputs": [
        {
          "internalType": "uint256",
          "name": "agentId",
          "type": "uint256"
        }
      ],
      "name": "withdrawStake",
      "outputs": [],
      "stateMutability": "nonpayable",
      "type": "function"
    }
  ],
  "bytecode": "0x60c0346100a557601f6123d938819003918201601f19168301916001600160401b038311848410176100a9578084926020946040528339810103126100a557516001600160a01b03811681036100a5573360805260a05260015f5560405161231b90816100be82396080518181816102fa0152818161047c0152818161051001528181610570015261155c015260a051818181610630015281816115ab01526119980152f35b5f80fd5b634e487b7160e01b5f52604160045260245ffdfe6080806040526004361015610012575f80fd5b5f3560e01c9081631072af9d14611c5c5750806311ba6b4a14611b645780631ab6f88814611ae157806325d5971f146118ff5780632de5aaf7146115f657806330efc498146115da5780633e413bee146115965780633f4ba83a146115465780634064396714611504578063490ade0714610bdf578063513856c814610acc5780635c975abb14610aaa578063616408891461079b578063768eb96f146107435780637b0472f0146105ac5780638456cb591461055a578063860749851461053f5780638da5cb5b146104fb5780639201ea0a146104df57806392c62e7014610442578063c50537121461041a578063cb71146e146103fe578063cce67226146103e3578063fb1fd2da146102d4578063fc62889f1461024a5763fd6103171461013a575f80fd5b3461024657602080600319360112610246576004358015158061023c575b61016190612158565b805f526002825261018260018060a01b03600760405f2001541633146121b0565b61019160ff6001541615611f41565b805f526002825260ff600760405f20015460a01c166101f7575f81815260028352604090819020600701805460ff60a01b1916600160a01b1790555142815233927f127e7b2a6798f68be613ca1b47e0c669465d58e5a5a6209ff41e07130273ecdc91a3005b60405162461bcd60e51b815260048101839052601d60248201527f4167656e7452656769737472793a20616c7265616479206163746976650000006044820152606490fd5b505f548110610158565b5f80fd5b34610246576040366003190112610246576004356001600160401b03811161024657366023820112156102465761028b903690602481600401359101611efc565b6102a76020602435928160405193828580945193849201611d61565b810160048152030190208054821015610246576020916102c691611ebd565b90546040519160031b1c8152f35b3461024657604036600319011261024657600435602435801515810361024657610328337f00000000000000000000000000000000000000000000000000000000000000006001600160a01b031614612260565b811515806103d9575b61033a90612158565b815f526002602052600a60405f2001805490600182018092116103c557556103a2575b805f5260026020527f9c5fd957136f7056786f11ea1efa87772d7df01344b57ae882fe4d493c0b5e0a6040805f20600b600a82015491015482519182526020820152a2005b805f526002602052600b60405f2001805490600182018092116103c5575561035d565b634e487b7160e01b5f52601160045260245ffd5b505f548210610331565b34610246575f366003190112610246576020604051600a8152f35b34610246575f3660031901126102465760206040516102008152f35b34610246575f366003190112610246575f545f1981019081116103c557602090604051908152f35b346102465760207f4db3a307fc9574ebe416e7b31c4e7c496231993aed9e7078297049fab68a5f7161047336611ee6565b9092906104aa337f00000000000000000000000000000000000000000000000000000000000000006001600160a01b031614612260565b831515806104d5575b6104bc90612158565b835f526002825280600c60405f200155604051908152a2005b505f5484106104b3565b34610246575f3660031901126102465760206040516103e88152f35b34610246575f366003190112610246576040517f00000000000000000000000000000000000000000000000000000000000000006001600160a01b03168152602090f35b34610246575f36600319011261024657602060405160508152f35b34610246575f3660031901126102465761059e337f00000000000000000000000000000000000000000000000000000000000000006001600160a01b031614612260565b6001805460ff191681179055005b34610246576105ba36611ee6565b9080151580610739575b6105cd90612158565b805f5260206002815260018060a01b036105f181600760405f2001541633146121b0565b61060060ff6001541615611f41565b83156106ea57815f916064604051809481936323b872dd60e01b83523360048401523060248401528960448401527f0000000000000000000000000000000000000000000000000000000000000000165af180156106df57610669915f916106b2575b50612214565b815f5260028152600d60405f20019081548481018091116103c5577f18dcd430020e4d4899772fd94a8b40451dc5044dfb70bc46b532eeae431c864f92556040519384523393a3005b6106d29150833d85116106d8575b6106ca8183611dfb565b8101906121fc565b85610663565b503d6106c0565b6040513d5f823e3d90fd5b60405162461bcd60e51b815260048101839052602160248201527f4167656e7452656769737472793a20616d6f756e74206d757374206265203e206044820152600360fc1b6064820152608490fd5b505f5481106105c4565b346102465760403660031901126102465761075c611d4b565b6001600160a01b03165f908152600360205260409020805460243591908210156102465760209161078c91611ebd565b90549060031b1c604051908152f35b34610246576080366003190112610246576001600160401b03600435602435828111610246576107cf903690600401611ce4565b60449391933591606435818111610246576107ee903690600401611ce4565b85929192151580610aa0575b61080390612158565b855f5260206002815261082660018060a01b03600760405f2001541633146121b0565b60019061083760ff83541615611f41565b85151580610a94575b61084990611f85565b610854871515611fd1565b875f526002815260405f209460038601858811610a0a5761087f886108798354611da7565b836120e0565b875f601f8211600114610a29575f91610a1e575b505f1960038a901b1c191688851b1790555b876004870155836108f3575b887f194664b89b5112604aea7f6744bbcee2c1829a62c50149a72898cc50d7dd51ec89896108ee8e8b600942910155604051938493429285612123565b0390a2005b60028601948411610a0a576109128461090c8754611da7565b876120e0565b5f91601f851160011461097c575092807f194664b89b5112604aea7f6744bbcee2c1829a62c50149a72898cc50d7dd51ec999a959381936108ee98965f94610971575b50501b915f199060031b1c19161790555b9181969588806108b1565b013592508c80610955565b91601f949394198416865f52835f20935f905b8282106109f3575050916108ee97959391857f194664b89b5112604aea7f6744bbcee2c1829a62c50149a72898cc50d7dd51ec9c9d989694106109da575b505050811b019055610966565b01355f19600384901b60f8161c191690558a80806109cd565b80888597829496880135815501960193019061098f565b634e487b7160e01b5f52604160045260245ffd5b90508b01358c610893565b8c91601f198116845f52865f209387895f925b848410610a74575050505010610a5b575b50508388811b0190556108a5565b8c01355f1960038b901b60f8161c191690558b80610a4d565b8294955095809791929396013581550194019201908b918f898991610a3c565b50610200861115610840565b505f5486106107fa565b34610246575f36600319011261024657602060ff600154166040519015158152f35b34610246576020366003190112610246576004355f52600260205260405f20805460018201610afa90611e1c565b91610b0760028201611e1c565b610b1360038301611e1c565b91600481015492600160a01b6001900360058301541660078301546008840154600985015491600a86015493600b87015495600c88015497600d0154986040519c8d9c8d528c6101c06020819201528d01610b6d91611d82565b8c810360408e0152610b7e91611d82565b8b810360608d0152610b8f91611d82565b9860808b015260a08a0152600160a01b60019003811660c08a015260a01c60ff16151560e08901526101008801526101208701526101408601526101608501526101808401526101a08301520390f35b346102465760c0366003190112610246576004356001600160401b03811161024657610c0f903690600401611ce4565b6024356001600160401b03811161024657610c2e903690600401611ce4565b9190926044356001600160401b03811161024657610c50903690600401611ce4565b6084359590939192906001600160a01b0387168703610246576001600160401b0360a435116102465736602360a435011215610246576001600160401b0360a43560040135116102465736602460a4356004013560051b60a43501011161024657610cc060ff6001541615611f41565b821515806114f9575b156114b457841515806114a8575b610ce090611f85565b6103e8861161145757610cf66064351515611fd1565b6001600160a01b0387161561141257600a60a43560040135116113cd575f5495610d1f8761201c565b5f55610d3060a4356004013561202a565b92610d3e6040519485611dfb565b600460a4350135808552601f1990610d559061202a565b015f5b8181106113bc5750505f5b60a435600401358110611342575090610d91610d9d939260405196610d8788611ddf565b8a88523691611efc565b60208601523691611efc565b6040830152610dad368585611efc565b6060830152606435608083015260018060a01b03861660a083015260c08201523360e0820152600161010082015242610120820152426101408201525f6101608201525f6101808201525f6101a08201525f6101c0820152835f52600260205260405f20908051825560208101518051906001600160401b038211610a0a578190610e4882610e3f6001880154611da7565b600188016120e0565b602090601f83116001146112d4575f926112c9575b50508160011b915f199060031b1c19161760018301555b60408101518051906001600160401b038211610a0a578190610ea682610e9d6002880154611da7565b600288016120e0565b602090601f831160011461125b575f92611250575b50508160011b915f199060031b1c19161760028301555b60608101518051906001600160401b038211610a0a578190610f0482610efb6003880154611da7565b600388016120e0565b602090601f83116001146111e2575f926111d7575b50508160011b915f199060031b1c19161760038301555b608081015160048301556005820160018060a01b0360a0830151166bffffffffffffffffffffffff60a01b82541617905560c0810151805190600160401b8211610a0a576006840154826006860155808310611163575b5060200190600684015f5260205f20915f905b828210611086575050505061107b60209683600d6101c07f42a20d49f1b2e8a0b7114e2f831a8bd723185045b8a6987dfd2a5d19b800256a9560078b980160018060a01b0360e08301511681549060ff60a01b610100850151151560a01b16916affffffffffffffffffffff60a81b161717905561012081015160088501556101408101516009850155610160810151600a850155610180810151600b8501556101a0810151600c8501550151910155335f526003885261105e8460405f20612096565b60405191829160018060a01b031696339642916064359185612123565b0390a4604051908152f35b80518051906001600160401b038211610a0a576110ad826110a78854611da7565b886120e0565b602090601f83116001146110f75792826001949360209386955f926110ec575b50505f19600383901b1c191690841b1787555b01940191019092610f9a565b015190508f806110cd565b90865f5260205f20915f5b601f198516811061114b575083602093600196938796938794601f19811610611133575b505050811b0187556110e0565b01515f1960f88460031b161c191690558f8080611126565b91926020600181928685015181550194019201611102565b600685015f5260205f20908382015b8183018110611182575050610f87565b8061118f60019254611da7565b8061119c575b5001611172565b601f811183146111b157505f81555b8c611195565b5f908282526111ce601f60208420920160051c82018583016120ca565b818355556111ab565b015190508880610f19565b9250600385015f5260205f20905f935b601f1984168510611235576001945083601f1981161061121d575b505050811b016003830155610f30565b01515f1960f88460031b161c1916905588808061120d565b818101518355602094850194600190930192909101906111f2565b015190508880610ebb565b9250600285015f5260205f20905f935b601f19841685106112ae576001945083601f19811610611296575b505050811b016002830155610ed2565b01515f1960f88460031b161c19169055888080611286565b8181015183556020948501946001909301929091019061126b565b015190508880610e5d565b9250600185015f5260205f20905f935b601f1984168510611327576001945083601f1981161061130f575b505050811b016001830155610e74565b01515f1960f88460031b161c191690558880806112ff565b818101518355602094850194600190930192909101906112e4565b8061136661135f6113b79360a43560040135602460a43501612041565b3691611efc565b6113708288612082565b5261137b8187612082565b506113b28a60206113988460a43560040135602460a43501612041565b919082604051938492833781016004815203019020612096565b61201c565b610d63565b806060602080938901015201610d58565b60405162461bcd60e51b815260206004820152601c60248201527f4167656e7452656769737472793a20746f6f206d616e792074616773000000006044820152606490fd5b60405162461bcd60e51b815260206004820152601d60248201527f4167656e7452656769737472793a20696e76616c69642077616c6c65740000006044820152606490fd5b60405162461bcd60e51b815260206004820152602360248201527f4167656e7452656769737472793a206465736372697074696f6e20746f6f206c6044820152626f6e6760e81b6064820152608490fd5b50610200851115610cd7565b60405162461bcd60e51b815260206004820152601b60248201527f4167656e7452656769737472793a20696e76616c6964206e616d6500000000006044820152606490fd5b506050831115610cc9565b346102465760203660031901126102465760206115346004358015158061153c575b61152f90612158565b6122ac565b604051908152f35b505f548110611526565b34610246575f3660031901126102465761158a337f00000000000000000000000000000000000000000000000000000000000000006001600160a01b031614612260565b6001805460ff19169055005b34610246575f366003190112610246576040517f00000000000000000000000000000000000000000000000000000000000000006001600160a01b03168152602090f35b34610246575f3660031901126102465760205f54604051908152f35b34610246576020366003190112610246576004355f6101c060405161161a81611ddf565b82815260606020820152606060408201526060808201528260808201528260a0820152606060c08201528260e08201528261010082015282610120820152826101408201528261016082015282610180820152826101a08201520152801515806118f5575b61168890612158565b5f52600260205260405f20604051906116a082611ddf565b805482526116b060018201611e1c565b60208301526116c160028201611e1c565b60408301526116d260038201611e1c565b60608301526004810154608083015260058101546001600160a01b031660a08301526006810180546117038161202a565b916117116040519384611dfb565b81835260208301905f5260205f205f915b8383106118d85786600d878760c084015260ff600782015460018060a01b03811660e086015260a01c16151561010084015260088101546101208401526009810154610140840152600a810154610160840152600b810154610180840152600c8101546101a084015201546101c082015260405160208152815160208201526117ee6117d86117c260208501516101e06040860152610200850190611d82565b6040850151848203601f19016060860152611d82565b6060840151838203601f19016080850152611d82565b608083015160a083015260018060a01b0360a08401511660c083015260c083015190601f198382030160e0840152815180825260208201916020808360051b8301019401925f915b8383106118ab578680876101c08b60018060a01b0360e08201511661010085015261010081015115156101208501526101208101516101408501526101408101516101608501526101608101516101808501526101808101516101a08501526101a08101518285015201516101e08301520390f35b90919293946020806118c9600193601f198682030187528951611d82565b97019301930191939290611836565b6001602081926118e785611e1c565b815201920192019190611722565b505f54811061167f565b34610246576020806003193601126102465760043580151580611ad7575b61192690612158565b805f526002825260018060a01b039161194983600760405f2001541633146121b0565b815f526002815260405f2060ff600782015460a01c16611a6c57600d01928354938415611a1b579180915f80945560446040518095819363a9059cbb60e01b83523360048401528960248401527f0000000000000000000000000000000000000000000000000000000000000000165af19182156106df577f459d5aef2c549903c1eeb1736f5728845d5ccf82537ddd5bf8035795eee89263926119f3915f916119fe5750612214565b6040519384523393a3005b611a159150833d85116106d8576106ca8183611dfb565b86610663565b60405162461bcd60e51b815260048101849052602360248201527f4167656e7452656769737472793a206e6f207374616b6520746f20776974686460448201526272617760e81b6064820152608490fd5b60405162461bcd60e51b815260048101839052603860248201527f4167656e7452656769737472793a2064656163746976617465206167656e742060448201527f6265666f7265207769746864726177696e67207374616b6500000000000000006064820152608490fd5b505f54811061191d565b3461024657602080600319360112610246576001600160a01b03611b03611d4b565b165f526003815260405f209060405190818184549182815201935f52815f20915f905b828210611b4d57611b4985611b3d81890382611dfb565b60405191829182611d11565b0390f35b835486529485019460019384019390910190611b26565b34610246576020806003193601126102465760043580151580611c52575b611b8b90612158565b805f5260028252611bac60018060a01b03600760405f2001541633146121b0565b805f526002825260ff600760405f20015460a01c1615611c0d575f81815260028352604090819020600701805460ff60a01b191690555142815233927f629ba2cba0fdd2c64ed7563ab32bd4421eccb677d4d27ef87ae65ff235a003f391a3005b60405162461bcd60e51b815260048101839052601f60248201527f4167656e7452656769737472793a20616c726561647920696e616374697665006044820152606490fd5b505f548110611b82565b346102465760209081600319360112610246576004356001600160401b0381116102465781611c9084923690600401611ce4565b80918337810160048152030190209060405190818184549182815201935f52815f20915f905b828210611ccd57611b4985611b3d81890382611dfb565b835486529485019460019384019390910190611cb6565b9181601f84011215610246578235916001600160401b038311610246576020838186019501011161024657565b602090816040818301928281528551809452019301915f5b828110611d37575050505090565b835185529381019392810192600101611d29565b600435906001600160a01b038216820361024657565b5f5b838110611d725750505f910152565b8181015183820152602001611d63565b90602091611d9b81518092818552858086019101611d61565b601f01601f1916010190565b90600182811c92168015611dd5575b6020831014611dc157565b634e487b7160e01b5f52602260045260245ffd5b91607f1691611db6565b6101e081019081106001600160401b03821117610a0a57604052565b90601f801991011681019081106001600160401b03821117610a0a57604052565b9060405191825f825492611e2f84611da7565b9081845260019485811690815f14611e9a5750600114611e5a575b5050611e5892500383611dfb565b565b909391505f52602090815f20935f915b818310611e82575050611e5893508201015f80611e4a565b85548884018501529485019487945091830191611e6a565b915050611e5894506020925060ff191682840152151560051b8201015f80611e4a565b8054821015611ed2575f5260205f2001905f90565b634e487b7160e01b5f52603260045260245ffd5b6040906003190112610246576004359060243590565b9291926001600160401b038211610a0a5760405191611f25601f8201601f191660200184611dfb565b829481845281830111610246578281602093845f960137010152565b15611f4857565b60405162461bcd60e51b81526020600482015260156024820152741059d95b9d149959da5cdd1c9e4e881c185d5cd959605a1b6044820152606490fd5b15611f8c57565b60405162461bcd60e51b815260206004820152601a60248201527f4167656e7452656769737472793a20696e76616c69642075726c0000000000006044820152606490fd5b15611fd857565b606460405162461bcd60e51b815260206004820152602060248201527f4167656e7452656769737472793a207072696365206d757374206265203e20306044820152fd5b5f1981146103c55760010190565b6001600160401b038111610a0a5760051b60200190565b9190811015611ed25760051b81013590601e19813603018212156102465701908135916001600160401b038311610246576020018236038113610246579190565b8051821015611ed25760209160051b010190565b8054600160401b811015610a0a576120b391600182018155611ebd565b819291549060031b91821b915f19901b1916179055565b8181106120d5575050565b5f81556001016120ca565b9190601f81116120ef57505050565b611e58925f5260205f20906020601f840160051c83019310612119575b601f0160051c01906120ca565b909150819061210c565b90826040936080929796959760608552816060860152838501375f828285010152601f80199101168201019460208201520152565b1561215f57565b60405162461bcd60e51b815260206004820152602360248201527f4167656e7452656769737472793a206167656e7420646f6573206e6f742065786044820152621a5cdd60ea1b6064820152608490fd5b156121b757565b60405162461bcd60e51b815260206004820152601e60248201527f4167656e7452656769737472793a206e6f74206167656e74206f776e657200006044820152606490fd5b90816020910312610246575180151581036102465790565b1561221b57565b60405162461bcd60e51b815260206004820152601e60248201527f4167656e7452656769737472793a207472616e73666572206661696c656400006044820152606490fd5b1561226757565b60405162461bcd60e51b815260206004820152601860248201527f4167656e7452656769737472793a206e6f74206f776e657200000000000000006044820152606490fd5b5f52600260205260405f20600a8101549081156122df57600b0154612710908181029181830414901517156103c5570490565b50505f9056fea2646970667358221220c23c59164ac2f3a87440380c19a62d78d6f7c0df09c90860f8e9757e13a89cc564736f6c63430008140033",
  "linkReferences": {},
  "deployedLinkReferences": {},
  "immutableReferences": {
    "32": [
      {
        "length": 32,
        "start": 762
      },
      {
        "length": 32,
        "start": 1148
      },
      {
        "length": 32,
        "start": 1296
      },
      {
        "length": 32,
        "start": 1392
      },
      {
        "length": 32,
        "start": 5468
      }
    ],
    "34": [
      {
        "length": 32,
        "start": 1584
      },
      {
        "length": 32,
        "start": 5547
      },
      {
        "length": 32,
        "start": 6552
      }
    ]
  },
  "inputSourceName": "project/contracts/AgentRegistry.sol",
  "buildInfoId": "solc-0_8_20-3049669c3858f6fb70bf7726ac969f0d12124d4c"
}